:100000000C94F2000C940F010C940F010C940F014E
:100010000C940F010C940F010C940F010C940F0120
:100020000C940F010C940F010C940F010C940F0110
:100030000C940F010C940F010C940F010C940F0100
:100040000C940F010C940F010C94BA040C94E60468
:100050000C940F010C940F010C940F010C940F01E0
:100060000C940F010C940F0107634236B79BD8A77D
:100070001A39685618AEBAAB558C1D3CB7CC5763CD
:10008000BD6DEDFD753EF6177231BF000000803F7B
:1000900008000000BE922449123EABAAAA2ABECD97
:1000A000CCCC4C3E00000080BEABAAAAAA3E000009
:1000B0000000BF000000803F000000000008417801
:1000C000D3BB4387D1133D190E3CC3BD4282AD2B38
:1000D0003E68EC8276BED98FE1A93E4C80EFFFBE30
:1000E00001C4FF7F3F000000000000407A10F35A77
:1000F00000A0724E18090010A5D4E80000E8764868
:10010000170000E40B54020000CA9A3B000000E113
:10011000F505000080969800000040420F000000A6
:10012000A08601000000102700000000E803000086
:1001300000006400000000000A0000000000010050
:10014000000000002C76D888DC674F0823DFC1DF71
:10015000AE59E1B1B796E5E3E453C63AE651997674
:1001600096E8E6C28426EB898C9B62ED407C6FFCAE
:10017000EFBC9C9F40F2BAA56FA5F490055A2AF7F0
:100180005C936B6CF9676DC11BFCE0E40D47FEF5F9
:1001900020E6B500D0ED902E030094357705008061
:1001A000841E080000204E0A000000C80C333333C0
:1001B000330F986E12831141EF8D2114893BE65560
:1001C00016CFFEE6DB18D1844B381BF77C1D901D43
:1001D000A4BBE424203284725E228100C9F124ECA5
:1001E000A1E53D2711241FBECFEFD4E0DEBFCDBF78
:1001F00011E0A0E0B1E0ECE5F9E102C005900D925C
:10020000A635B107D9F722E0A6E5B1E001C01D92FD
:10021000AD30B207E1F70E94FD050C94AC0C0C94D4
:1002200000009B01AC01E6E5F1E084819581A681A7
:10023000B78181939193A193B19381E0EA3AF80752
:10024000A1F72093A6013093A7014093A8015093F2
:10025000A901E6E5F1E020E030E040E050E08191E6
:100260009191A191B191280F391F4A1F5B1F81E025
:10027000EA3AF807A1F7CA01B90125E130E040E008
:1002800050E00E949806CA01B9010895EF92FF92CA
:100290000F931F93CF93DF93182F062FF72EE42E83
:1002A0008EEE0E94A405812F0E94D7058FEE0E943A
:1002B000CC05202F3F2DC901EC01FF240E2D10E0AD
:1002C000015010400DC08F2D90E08017910719F458
:1002D0000E94F30502C00E94E9058883F3942196E9
:1002E000FE1488F30E94CF05DF91CF911F910F91EB
:1002F000FF90EF9008950F931F93DF93CF9300D05B
:10030000CDB7DEB71A8219828AEA8E010F5F1F4FBE
:10031000B80142E00E944601998180E02A8130E0E4
:10032000822B932B90930402809303028CEAB801F2
:1003300042E00E944601998180E02A8130E0822BD0
:10034000932B90930C0280930B028EEAB80142E04B
:100350000E944601998180E02A8130E0822B932B14
:100360009093F8018093F70180EBB80142E00E947E
:100370004601998180E02A8130E0822B932B909373
:10038000F0018093EF0182EBB80142E00E94460148
:10039000998180E02A8130E0822B932B9093080290
:1003A0008093070284EBB80142E00E9446019981E4
:1003B00080E02A8130E0822B932B9093000280937F
:1003C000FF0186EBB80142E00E944601998180E07E
:1003D0002A8130E0822B932B9093FE018093FD01C4
:1003E00088EBB80142E00E944601998180E02A81B1
:1003F00030E0822B932B9093F2018093F1018AEBF2
:10040000B80142E00E944601998180E02A8130E0F3
:10041000822B932B90930602809305028CEBB801FC
:1004200042E00E944601998180E02A8130E0822BDF
:10043000932B90930A02809309028EEBB80142E05D
:100440000E944601998180E02A8130E0822B932B23
:1004500090930202809301020F900F90CF91DF9151
:100460001F910F9108950F931F93182F062F8EEE53
:100470000E94A405812F0E94D705802F0E94D705D6
:100480000E94CF051F910F910895EF92FF920F9355
:100490001F93DF93CF9300D0CDB7DEB71A821982B6
:1004A00084EF6EE20E94330280E197E20197F1F758
:1004B00086EFBE016F5F7F4F42E00E944601698177
:1004C00070E080E090E0982F872F762F66272A81B2
:1004D00030E040E050E0622B732B842B952B209171
:1004E000FF013091000240E050E0621B730B840B6F
:1004F000950B209107023091080240E050E00E94E5
:1005000066067B018C013FE015950795F794E7940B
:100510003A95D1F76091090270910A02882777FD18
:100520008095982F2BE0660F771F881F991F2A95BB
:10053000D1F72091010230910202442737FD409506
:10054000542F2E0D3F1D401F511F0E949806E20E92
:10055000F31E041F151FE092F901F092FA010093B7
:10056000FB011093FC010F900F90CF91DF911F9131
:100570000F91FF90EF9008950E9445026091F9015C
:100580007091FA018091FB019091FC01685F7F4FAF
:100590008F4F9F4F54E095958795779567955A951E
:1005A000D1F70E94A00720E030E040E251E40E9431
:1005B000360708952F923F924F925F926F927F92EB
:1005C0008F929F92AF92BF92CF92DF92EF92FF9263
:1005D0000F931F93DF93CF93CDB7DEB727970FB657
:1005E000F894DEBF0FBECDBF8E010F5F1F4F83E0BB
:1005F000D8011D928A95E9F70E94450284EF64EFC5
:100600000E94330280E29BEC0197F1F786EFB8017C
:1006100043E00E9446016090F9017090FA018090D9
:10062000FB019090FC0180E690EFAFEFBFEF680E0A
:10063000791E8A1E9B1EC401B301A40193010E946E
:1006400066061B012C016091F7017091F801882763
:1006500077FD8095982F0E9466067B018C018DE0C6
:1006600015950795F794E7948A95D1F782E090E085
:10067000A0E0B0E0E80EF91E0A1F1B1FC201B10185
:10068000BCE09595879577956795BA95D1F72091B8
:10069000FD013091FE01442737FD4095542F0E9403
:1006A0006606BC01992777FD9095892FE60EF71E07
:1006B000081F191FF2E015950795F794E794FA952E
:1006C000D1F780E090E8A0E0B0E0E80EF91E0A1F44
:1006D0001B1F2091EF013091F00140E050E0C80174
:1006E000B7010E946606DC01CB01EFE0B695A79545
:1006F00097958795EA95D1F78C839D83AE83BF83C9
:10070000A980BB24CC24DD246501BB24AA248A81D2
:1007100090E0A0E0B0E0BA2FA92F982F8827A82A50
:10072000B92ACA2ADB2A8B8190E0A0E0B0E0A82A8F
:10073000B92ACA2ADB2A55E0D594C794B794A7945E
:100740005A95D1F760910B0270910C02882777FDC2
:100750008095982FA40193010E9466067B018C016D
:100760004BE015950795F794E7944A95D1F780915A
:10077000030290910402AA2797FDA095BA2F32E0B8
:10078000880F991FAA1FBB1F3A95D1F7E80EF91ED3
:100790000A1F1B1F2091F1013091F201442737FD00
:1007A0004095542FC201B1010E94660627E195953C
:1007B0008795779567952A95D1F7E60EF71E081F5E
:1007C000191FEE0CFF1C001F111FAE18BF08C00A36
:1007D000D10AC601B5012AE638E140E050E00E94A6
:1007E000660697FD0FC0660F771F881F991F2C8123
:1007F0003D814E815F810E947606C901DA015C016C
:100800006D010CC02C813D814E815F810E94760676
:1008100059016A01AA0CBB1CCC1CDD1C5527D7FC56
:100820005A954D2D3C2D2B2DCA01B9010E9466060B
:100830002EED3BE040E050E00E9466067B018C011B
:10084000C601B50123E433EE4FEF5FEF0E94660669
:10085000BC01992777FD9095892F6153714F8F4F78
:100860009F4F78011127F7FC1095012F6E0D7F1D0A
:10087000801F911FE4E09595879577956795EA9598
:10088000D1F76A0D7B1D8C1D9D1D6093F301709344
:10089000F4018093F5019093F6010E941101609399
:1008A000F3017093F4018093F5019093F60127967C
:1008B0000FB6F894DEBF0FBECDBFCF91DF911F9171
:1008C0000F91FF90EF90DF90CF90BF90AF909F90EF
:1008D0008F907F906F905F904F903F902F900895F2
:1008E0001F930E9478058AE18A95F1F70E947B01A7
:1008F0000E94450210E00E94DA021F5F1531D9F70D
:100900001F9108950E94DA026091F3017091F40141
:100910008091F5019091F6010E94A00720E836EE43
:1009200045EC57E40E94360721E03EED42E45EE3E9
:100930000E942C089B01AC0160E070E080E89FE31E
:100940000E94D1062BE43AE34DEB57E30E943607B1
:1009500020E030E040E050E00E94D20608950E947E
:10096000DA026091F3017091F4018091F5019091A8
:10097000F60108951F920F920FB60F9211242F9334
:100980008F939F93EF93FF939091C0002091C600A7
:10099000E091EC01EF5FEF718091ED01E81711F448
:1009A00082E008C0892F8871E093EC01F0E0E65303
:1009B000FE4F20838093EE01FF91EF919F918F91E5
:1009C0002F910F900FBE0F901F9018951F920F92AE
:1009D0000FB60F9211248F939F93EF93FF939091F3
:1009E000EA018091EB01981769F0E091EB01EF5F6C
:1009F000EF71E093EB01F0E0E655FE4F80818093CC
:100A0000C60005C08091C1008F7D8093C100FF9119
:100A1000EF919F918F910F900FBE0F901F9018959F
:100A20009C011092EA011092EB011092EC011092DD
:100A3000ED0197FF04C082E08093C0003F773093C0
:100A4000C5002093C40088E98093C10086E08093AC
:100A5000C20008959091EC018091ED01981719F46E
:100A600020E031E012C0E091ED01EF5FEF71E09323
:100A7000ED01F0E0E653FE4F30812091EE01922F20
:100A800080E0AC01430F511D9A01C9010895282F40
:100A90009091EA019F5F9F718091EB019817E1F3BC
:100AA000E92FF0E0E655FE4F20839093EA01809114
:100AB000C10080628093C1000895CF93DF93EC0161
:100AC00003C021960E94470588818823D1F7DF91D2
:100AD000CF910895CF93DF93EC0102C00E944705A8
:100AE000FE01219684918823C9F7DF91CF91089563
:100AF0001092B90088E88093B8000895982F84EA8E
:100B00008093BC008091BC0087FFFCCF8091B9002E
:100B1000887F883021F0803111F081E00895909332
:100B2000BB0084E88093BC008091BC0087FFFCCFB1
:100B30009091B900987F983111F480E0089580E099
:100B4000903409F081E00895982F44EA34E824E9CC
:100B50004093BC008091BC0087FFFCCF8091B9001E
:100B6000887F883011F0803199F79093BB003093E3
:100B7000BC008091BC0087FFFCCF8091B900887FCA
:100B8000803211F0883539F42093BC008091BC008C
:100B900084FDFCCFDDCF08950E947E05089584E991
:100BA0008093BC008091BC0084FDFCCF08958093AD
:100BB000BB0084E88093BC008091BC0087FFFCCF21
:100BC0008091B90090E0887F883209F091E0892F08
:100BD000089584EC8093BC008091BC0087FFFCCF1B
:100BE0008091BB00089584E88093BC008091BC0094
:100BF00087FFFCCF8091BB000895CF93DF93CDB7E3
:100C0000DEB72A970FB6F894DEBF0FBECDBF8FECCC
:100C100090E00E941005789480E091E00E945D05CC
:100C20000E94700480E191E00E945D050E94BC0278
:100C30008E010F5F1F4F22E04AE00E94F40980E21C
:100C400091E00E945D05C8010E945D058FE291E080
:100C50000E945D0586E391E00E945D050E94AF045D
:100C60002AE0A8010E94150A89E391E00E945D052F
:100C7000C8010E945D0584E491E00E945D0586E361
:100C800091E00E945D050E94820422E04AE00E94F9
:100C9000F40988E491E00E945D05C8010E945D05A9
:100CA00083E591E00E945D0586E391E00E945D0589
:100CB00086E391E00E945D052FEF8EE994E22150DA
:100CC00080409040E1F700C00000B0CFDB018F937F
:100CD0009F930E94B706BF91AF91A29F800D911D77
:100CE000A39F900DB29F900D11240895A1E21A2E9A
:100CF000AA1BBB1BFD010DC0AA1FBB1FEE1FFF1FC0
:100D0000A217B307E407F50720F0A21BB30BE40B0F
:100D1000F50B661F771F881F991F1A9469F7609556
:100D20007095809590959B01AC01BD01CF01089510
:100D3000052E97FB1EF400940E94AF0657FD07D0C6
:100D40000E94760607FC03D04EF40C94AF06509533
:100D50004095309521953F4F4F4F5F4F08959095A7
:100D60008095709561957F4F8F4F9F4F08950E949A
:100D7000C206A59F900DB49F900DA49F800D911D5C
:100D800011240895A29FB001B39FC001A39F700DCD
:100D9000811D1124911DB29F700D811D1124911D83
:100DA00008955058BB27AA270ED01CC10DD130F092
:100DB00012D120F031F49F3F11F41EF402C10EF461
:100DC000E095E7FBF8C0E92F1ED180F3BA17620760
:100DD00073078407950718F071F49EF536C10EF479
:100DE000E0950B2EBA2FA02D0B01B90190010C013B
:100DF000CA01A0011124FF27591B99F0593F50F453
:100E0000503E68F11A16F040A22F232F342F4427AA
:100E1000585FF3CF469537952795A795F0405395A2
:100E2000C9F77EF41F16BA0B620B730B840BBAF072
:100E30009150A1F0FF0FBB1F661F771F881FC2F7DD
:100E40000EC0BA0F621F731F841F48F487957795F1
:100E50006795B795F7959E3F08F0B3CF9395880FA8
:100E600008F09927EE0F9795879508950CD0BAC092
:100E7000B2D040F0A9D030F021F45F3F19F09BC010
:100E80005111E4C09EC0BFD098F39923C9F35523F4
:100E9000B1F3951B550BBB27AA276217730784076D
:100EA00038F09F5F5F4F220F331F441FAA1FA9F323
:100EB00033D00E2E3AF0E0E830D091505040E69515
:100EC000001CCAF729D0FE2F27D0660F771F881F76
:100ED000BB1F261737074807AB07B0E809F0BB0B65
:100EE000802DBF01FF2793585F4F2AF09E3F510589
:100EF00068F061C0ABC05F3FECF3983EDCF38695D1
:100F000077956795B795F7959F5FC9F7880F911DFE
:100F10009695879597F90895E1E0660F771F881FEA
:100F2000BB1F621773078407BA0720F0621B730B9D
:100F3000840BBA0BEE1F88F7E0950895E89409C07A
:100F400097FB3EF490958095709561957F4F8F4FFC
:100F50009F4F9923A9F0F92F96E9BB279395F69512
:100F6000879577956795B795F111F8CFFAF4BB0F90
:100F700011F460FF1BC06F5F7F4F8F4F9F4F16C0F4
:100F8000882311F096E911C0772321F09EE8872F7E
:100F9000762F05C0662371F096E8862F70E060E03A
:100FA0002AF09A95660F771F881FDAF7880F9695B3
:100FB000879597F9089597F99F6780E870E060E05A
:100FC00008959FEF80EC089500240A9416161706E2
:100FD00018060906089500240A941216130614062A
:100FE00005060895092E0394000C11F4882352F08D
:100FF000BB0F40F4BF2B11F460FF04C06F5F7F4F45
:101000008F4F9F4F089557FD9058440F551F59F02B
:101010005F3F71F04795880F97FB991F61F09F3FE5
:1010200079F087950895121613061406551FF2CF0E
:101030004695F1DF08C0161617061806991FF1CF5E
:1010400086957105610508940895E894BB27662785
:101050007727CB0197F90895FA01EE0FFF1F30961D
:101060002105310599F16115710561F48038BFE3FF
:101070009B0749F168949038810561F08038BFEF93
:101080009B0741F0992342F5FF3FE105310521051A
:1010900011F1E8940894E795D901AA2329F4AB2F1C
:1010A000BE2FF85FD0F310C0FF5F70F4A695E0F795
:1010B000F73950F019F0FF3A38F49F779F930CD02E
:1010C0000F9007FC905808953EF07BCF60E070E0F1
:1010D00080E89FE308954FE79F775F934F933F9397
:1010E0002F939ED02F913F914F915F910CD105C0CE
:1010F00019F40EF060CFA9CF64CF8DDFC8F3963816
:10110000C0F707F80F92E8942BE33AEA48EB5FE761
:1011100008D10F920F920F924DB75EB70F92C0D0C9
:10112000E8E6F0E016D04F915F91EF91FF91E595E1
:10113000EE1FFF1F49F0FE57E0684427EE0F441FE3
:10114000FA95E1F74195550B32D00F9007FE26C076
:101150000895DF93CF931F930F93FF92EF92DF9247
:101160007B018C01689405C0DA2EEF01D8D0FE0116
:10117000E894A5912591359145915591AEF3EF01F4
:1011800022DEFE019701A801DA9479F7DF90EF9053
:10119000FF900F911F91CF91DF9108959B01AC01BA
:1011A00060E070E080E89FE361CE05CF0FC133DFE0
:1011B000E8F39923D9F3940F511DBBF3915050409C
:1011C00094F059F0882332F0660F771F881F9150F2
:1011D0005040C1F79E3F510544F7880F911D9695E9
:1011E000879597F908955F3FACF0983E9CF0BB2738
:1011F000869577956795B79508F4B1609395C1F793
:10120000BB0F58F711F460FFE8CF6F5F7F4F8F4F30
:101210009F4FE3CF1BCF0EF0D9C0D3CE6894CBCE77
:10122000FADEC8F39923D1F3C6F3DF93CF931F936C
:101230000F93FF92C92FDD2788232AF02197660F8D
:10124000771F881FDAF720E030E040E85FEB9FE38C
:10125000883920F0803E30F021968F77A3DDE0E9D9
:10126000F0E003C09FDDEDEBF0E073DF8B01BE012A
:10127000EC01FB2E6F5771097595771F880B990B41
:101280005FDE28E132E741E35FE349D0AF2D98010B
:10129000AE01FF900F911F91CF91DF9194DDA2CE0F
:1012A000FA01DC01AA0FBB1F9B01AC01BF5728F458
:1012B00022273327442750781FC0B75188F4AB2F1B
:1012C0000024469537952795011CA395D2F300205D
:1012D00069F0220F331F441FB395DAF30DD061CDAF
:1012E00061307105A0E88A07B94630F49B01AC0172
:1012F0006627772788279078309621F020833183DE
:101300004283538308950BD06DCE5EDE28F063DEFA
:1013100018F0952309F04FCE54CE112497CE73DEEA
:10132000A0F3959FD1F3950F50E0551F629FF001F8
:10133000729FBB27F00DB11D639FAA27F00DB11D51
:10134000AA1F649F6627B00DA11D661F829F2227DA
:10135000B00DA11D621F739FB00DA11D621F839F61
:10136000A00D611D221F749F3327A00D611D231F37
:10137000849F600D211D822F762F6A2F11249F5785
:1013800050408AF0E1F088234AF0EE0FFF1FBB1FA8
:10139000661F771F881F91505040A9F79E3F510547
:1013A00070F009CE53CE5F3FECF3983EDCF38695A8
:1013B00077956795B795F795E7959F5FC1F7FE2BF2
:1013C000880F911D9695879597F908959F3F31F065
:1013D000915020F4879577956795B795880F911D63
:1013E0009695879597F90895EF920F931F93CF9352
:1013F000DF93E80147FF02C034E101C034E0E42F8D
:10140000FF27E7FDF095F7FF03C0F195E195F1099E
:10141000E32E022F2E2FAE010E94460ACE01DF914D
:10142000CF911F910F91EF900895BB272A3051F46F
:10143000992342F4BDE290958095709561957F4F18
:101440008F4F9F4F0C94250ABB27FA01A62F6217D6
:10145000710581059105330B30FB66F0AA27660FF5
:10146000771F881F991FAA1FA21710F0A21B639550
:101470003850A9F7A05DAA3308F0A95DA19336F70B
:10148000B111B1931082CA010C949C0C6F927F929F
:101490009F92AF92BF92CF92DF92EF92FF920F9303
:1014A0001F93CF93DF93CDB7DEB729970FB6F8948C
:1014B000DEBF0FBECDBF6A01B22E102F0C3320F459
:1014C000FF24F394F00E02C04CE3F42E0F2D27E01E
:1014D000AE014F5F5F4F0E94C40B7981272F2970A7
:1014E000213031F0E1FC06C0E0FC06C060E005C040
:1014F0006DE203C06BE201C060E2AE2DA07173FF2C
:1015000036C0662311F084E001C083E08B1510F42F
:10151000B81A01C0B12CA1110BC0F6018B2D90E2BD
:10152000882319F091938150FBCFCB0CD11CB12CA7
:10153000662331F0F601608396012F5F3F4F69010A
:10154000C6010396E2FE05C02EE4F601208331E4D5
:1015500004C02EE6F601208331E631832283FC01AC
:101560002B2D30E22223F1F131932150FBCF72FF7A
:1015700040C0662311F084E001C083E08B1510F4B5
:10158000B81A01C0B12CA1110BC0F6018B2D90E24D
:10159000882319F091938150FBCFCB0CD11CB12C37
:1015A000662331F0F601608396012F5F3F4F69019A
:1015B000C6010396E2FE07C029E4F60120832EE46B
:1015C000218326E406C029E6F60120832EE6218346
:1015D00026E62283FC012B2D30E2222319F03193E1
:1015E0002150FBCFFC01EB0DF11D10828EEF9FEF20
:1015F000B7C0B1E0611101C0B0E04B2F50E0181648
:10160000190624F49C012F5F3F4F02C021E030E017
:10161000240F351F112329F0412F50E04F5F5F4FFA
:1016200002C040E050E0420F531F2B2D30E0421724
:10163000530714F4B41A01C0B12C2E2D287159F49B
:10164000F6012B2D30E2222319F031932150FBCFEC
:10165000CB0CD11CB12CBB2331F0F6016083960179
:101660002F5F3F4F6901A1110BC0F6012B2D30E315
:10167000222319F031932150FBCFCB0CD11CB12C7C
:10168000F80E0A81372F3071A32E74FF03C0013387
:1016900009F4FA941F142CF42F2D293018F028E0A7
:1016A00001C021E0682F392F97FF02C060E030E0D1
:1016B000462F532F612C712C3EE2932EBC01621BEE
:1016C00071099B01DC01A41BB50BE1E0F0E0EC0F1C
:1016D000FD1FAE0FBF1FE12EF12CF194E194F10834
:1016E0004F3FFFEF5F0731F4F6019082B6016F5F65
:1016F0007F4F6B01841795074CF02417350734F49E
:10170000BD01660D771DFB01118101C010E3415041
:101710005109FFEF6F1A7F0AB6016F5F7F4F4E15B9
:101720005F0524F0F60110836B01DACF48175907E3
:1017300039F4063320F4053319F4A11001C011E384
:10174000F6011083FB018B2D90E2882319F0919311
:101750008150FBCFFB01EB0DF11D108280E090E08A
:1017600029960FB6F894DEBF0FBECDBFDF91CF91A3
:101770001F910F91FF90EF90DF90CF90BF90AF90AF
:101780009F907F906F900895283008F027E03327CE
:10179000DA01990F311D87FD916000966105710591
:1017A00039F432602E5F3D9330E32A95E1F70895D6
:1017B0009F3F30F080387105610509F03C5F3C5F68
:1017C0003D93913008F08068911DDF93CF931F9374
:1017D0000F93FF92EF92192F987F9695E92F969588
:1017E0009695E90FFF27EC5BFE4F99273327EE24F0
:1017F000FF24A701E70105900894079428F4360F09
:10180000E71EF81E491F511D660F771F881F991F7D
:101810000694A1F70590079428F4E70EF81E491FD7
:10182000561FC11D770F881F991F661F0694A1F7C9
:101830000590079428F4F80E491F561FC71FD11DA5
:10184000880F991F661F771F0694A1F705900794CC
:1018500020F4490F561FC71FD81F990F661F771F07
:10186000881F0694A9F784911095177041F0D695BA
:10187000C79557954795F794E7941A95C1F7EAEEFF
:10188000F0E06894159015913591659195910590CA
:101890007FE27395E118F10A430B560BC90BD0098F
:1018A000C0F7E10CF11E431F561FC91FD01D7EF467
:1018B000703311F48A95E6CFE894015030F0080FA8
:1018C0000AF40027021708F4202F2395022F7A33F9
:1018D00028F079E37D932A95E9F710C07D932A9546
:1018E00089F6069497956795379517951794E1189B
:1018F000F10A430B560BC90BD00998F023957E9142
:1019000073957A3308F070E37C932013B8F77E91D7
:1019100070617D9330F0839571E37D9370E32A9538
:10192000E1F71124EF90FF900F911F91CF91DF917C
:10193000992787FD90950895DC01FC01672F71912F
:101940007723E1F7329704C07C916D9370836291A5
:0C195000AE17BF07C8F30895F894FFCF4E
:10195C0074656D7065726174757265313A200D0035
:10196C0074656D70657261747572655F333A2000D1
:10197C0074656D7065726174757265323A20002001
:10198C004320646567000D0A00707265737375728D
:10199C00653A200020506100616C7469747564654F
:0619AC003A2000204D006E
:00000001FF
